{
  "address": "0xc0720B4819BA4a472DcE9B04182363378CbCE9cB",
  "abi": [
    {
      "inputs": [
        {
          "internalType": "uint256",
          "name": "_a",
          "type": "uint256"
        }
      ],
      "stateMutability": "nonpayable",
      "type": "constructor"
    },
    {
      "inputs": [
        {
          "internalType": "uint256",
          "name": "_x",
          "type": "uint256"
        }
      ],
      "name": "setValue",
      "outputs": [
        {
          "internalType": "uint256",
          "name": "",
          "type": "uint256"
        }
      ],
      "stateMutability": "nonpayable",
      "type": "function"
    },
    {
      "inputs": [],
      "name": "test",
      "outputs": [
        {
          "internalType": "uint256",
          "name": "",
          "type": "uint256"
        }
      ],
      "stateMutability": "view",
      "type": "function"
    }
  ],
  "transactionHash": "0x3e3ca00445f9eafee123c3fd8842d192c162bc28e58519202e29920ed04445b6",
  "args": [
    12
  ],
  "numDeployments": 1,
  "solcInputHash": "019cc783b1a23e7c9cc669059c9755f1",
  "bytecode": "0x6080604052600a60005534801561001557600080fd5b506040516102283803806102288339818101604052810190610037919061007f565b80600081905550506100ac565b600080fd5b6000819050919050565b61005c81610049565b811461006757600080fd5b50565b60008151905061007981610053565b92915050565b60006020828403121561009557610094610044565b5b60006100a38482850161006a565b91505092915050565b61016d806100bb6000396000f3fe608060405234801561001057600080fd5b50600436106100365760003560e01c8063552410771461003b578063f8a8fd6d1461006b575b600080fd5b610055600480360381019061005091906100e0565b610089565b604051610062919061011c565b60405180910390f35b61007361009c565b604051610080919061011c565b60405180910390f35b6000816000819055506000549050919050565b60008054905090565b600080fd5b6000819050919050565b6100bd816100aa565b81146100c857600080fd5b50565b6000813590506100da816100b4565b92915050565b6000602082840312156100f6576100f56100a5565b5b6000610104848285016100cb565b91505092915050565b610116816100aa565b82525050565b6000602082019050610131600083018461010d565b9291505056fea264697066735822122080ba9d204bbbdd5b60f2bd506605b0a10c1d70b42d9ba0df06f43ddd48c9333a64736f6c634300080e0033",
  "devdoc": {
    "kind": "dev",
    "methods": {},
    "version": 1
  },
  "userdoc": {
    "kind": "user",
    "methods": {},
    "version": 1
  },
  "storageLayout": {
    "storage": [
      {
        "astId": 5,
        "contract": "contracts/Lock.sol:Lock",
        "label": "x",
        "offset": 0,
        "slot": "0",
        "type": "t_uint256"
      }
    ],
    "types": {
      "t_uint256": {
        "encoding": "inplace",
        "label": "uint256",
        "numberOfBytes": "32"
      }
    }
  }
}